:020000020000FC
:020000007AC0C4
:02000C000CC026
:100026006FB76F936B3000F06C3000F0C298839519
:1000360009F001C0939562E08C30960711F000003C
:1000460002C099278827602F0FE00A9509F0FDCF97
:10005600062FC29A61E0803E960708F415C0DD2798
:10006600C1E061E08B3E960731F061E08C3E960779
:1000760029F0000006C0C1987FEF03C0C19A772718
:1000860000C06F916FBF1895582F5F7011F0000078
:1000960001C0A096CF93DF93E0962F9660E2599128
:1000A60055BB6A95000000000000000031F000001A
:1000B6000000000000000000F2CFDF91CF916F91A9
:1000C6006FBF05BA1895DD27CC2707E004BB06E00D
:1000D60007BB06E005BB00E008BB00E00FBD09E07A
:1000E6000EBD02E00BBD0CE70ABD00E109BF089595
:1000F600F89404E00EBF0FE50DBF00240FEF102E9D
:10010600E2DFFED0D4D000E0009320040093210467
:1001160001E000932204789400EFBB27A0E60D923D
:100126000D920D920D920A9509F0F9CF01E0A0E625
:10013600B0E00C9302E0AFE7B0E00C9301E0A0E082
:10014600B4E00C9302E0AFE1B4E00C930FE0A9EE4B
:10015600B0E01D920A9509F0FCCF05E1A9E0B1E0F7
:100166001C921E961C9252960A9509F0F9CF0FE042
:10017600A9EAB3E01D920A9509F0FCCF7F3FF1F79B
:1001860077279CD0052D03950530502E09F07FC0AA
:10019600009120040395AAE0B1E090960A9509F033
:1001A600FCCF00912104A00FB01D1C91101579F011
:1001B600502C002700932004009122040395077019
:1001C60021F000932204002716C00395FACF009170
:1001D6002004AAE0B1E090960A9509F0FCCF0091C0
:1001E6002104A00FB01D10E01C93502C0091200498
:1001F6000395053158F400932004A0FC08D0A1FC17
:100206000FD0A7FC18C000E0B02E41C03BC0009143
:1002160021040C3009F408950395009321040895F0
:1002260000912104003009F408950A9500932104F1
:10023600089507D003C00B2D0030D9F30FEFB02E71
:1002460026C00F921F920091200410912000019F5A
:10025600AAE0B1E00A0E1B1E0091210410E0000E78
:10026600111EB12DA02D00E090961C91103039F48E
:100276000395053109F0F8CF1F900F90089500936C
:100286002004FACF00E0B7CF0CE0009321040091E0
:100296002004AAE0B1E090960A9509F0FCCF0091FF
:1002A6002104A00FB01D109122041C9367CF8A9AD7
:1002B6008B988C9A9298949A939A08950F931F9379
:1002C6002F93929A0CE30A9509F0FDCF929828E0B5
:1002D60011270CE30A9509F0FDCF9498839B0ED065
:1002E6000CE30A9509F0FDCF949A2A9511F0110FA7
:1002F600F0CFA12E2F911F910F91089511600895AF
:1003060000E000BD04E109B908E10AB906E800BD4C
:1003160008955D9BFECF0CB908950591003011F04C
:0E032600F8DFFBCF08955F9BFECF0CB108956A
:00000001FF
