:020000020000FC
:020000007AC0C4
:02000C000CC026
:100026006FB76F936B3000F06C3000F0C298839519
:1000360009F001C0939562E08C30960711F000003C
:1000460002C099278827602F0FE00A9509F0FDCF97
:10005600062FC29A61E0803E960708F415C0DD2798
:10006600C1E061E08B3E960731F061E08C3E960779
:1000760029F0000006C0C1987FEF03C0C19A772718
:1000860000C06F916FBF1895582F5F7011F0000078
:1000960001C0A096CF93DF93E0962F9660E2599128
:1000A60055BB6A95000000000000000031F000001A
:1000B6000000000000000000F2CFDF91CF916F91A9
:1000C6006FBF25BA1895DD27CC2707E004BB06E0ED
:1000D60007BB06E005BB00E008BB00E00FBD09E07A
:1000E6000EBD02E00BBD0CE70ABD00E109BF089595
:1000F600F89404E00EBF0FE50DBF002422240FEF95
:10010600102EE1DF27D1FDD0F1D000E000932004CE
:100116000093210401E0009322047894C5D0B3D063
:1001260099D07F3FF1F77727F3D0A4FCC8D0A0FC85
:1001360059D0A1FC6AD0A2FC7BD0BA2C052D039520
:100146000E31502E09F0EDCF502C0F921F920091D8
:100156002004039510E2019FAAE0B1E00A0E1B1EDF
:10016600B12DA02D1F900F900091210410E0A00F3B
:10017600B11F1C91101589F00092200406E000932F
:100186002104BAD000932204077019F000932204C8
:1001960012C00395009322040EC000E010D0009117
:1001A60020040395053118F40093200404C000E0F0
:1001B6000093200400C00091220401D0B2CF0F9317
:1001C60000912004AAE0B1E0003001F090960A9573
:1001D60009F0FCCF00912104A00F00E0B01F0F91A1
:1001E6000C930895B0FE01C00895009121040C30CF
:1001F60009F4089500E0E3DF0091210403950093DC
:10020600210400912204DBDF0895B1FE01C00895A8
:1002160000912104003009F4089500E0D0DF009138
:1002260021040A950093210400912204C8DF089551
:1002360001C0089500912004043109F4089500E0F6
:10024600BEDF009120040395009320040091220450
:10025600B6DF08950FE0A9EEB0E01D920A9509F009
:10026600FCCF05E1A9E0B1E01C921E961C925296C5
:100276000A9509F0F9CF0FE0A9EAB3E01D920A95B5
:1002860009F0FCCF089501E0A0E6B0E00C9302E08F
:10029600AFE7B0E00C9301E0A0E0B4E00C9302E01D
:1002A600AFE1B4E00C93089500EFBB27A0E60D92F2
:1002B6000D920D920D920A9509F0F9CF089505E178
:1002C600AAE0B1E00D920D920D920D920D920D9253
:1002D6000D920D920D920D920D920D920C925496D6
:1002E6000A9509F0EFCF009220040895A59805E03D
:1002F60007B905EE06B9089504B10F9305B10F913C
:1003060008958A9A8B988C9A9298949A939A0895BB
:100316000F931F932F93929A0CE30A9509F0FDCF42
:10032600929828E011270CE30A9509F0FDCF9498DE
:10033600839B0ED00CE30A9509F0FDCF949A2A957B
:1003460011F0110FF0CFA12E2F911F910F9108954B
:100356001160089500E000BD04E109B908E10AB999
:1003660006E800BD08955D9BFECF0CB90895059182
:10037600003011F0F8DFFBCF08955F9BFECF0CB184
:020386000895D8
:00000001FF
