:020000020000FC
:020000007AC0C4
:02000C000CC026
:100026006FB76F936B3000F06C3000F09598839546
:1000360009F001C0939562E08C30960711F000003C
:1000460002C099278827602F0FE00A9509F0FDCF97
:10005600062F959A61E0803E960708F415C0DD27C5
:10006600C1E061E08B3E960731F061E08C3E960779
:1000760029F0000006C096987FEF03C0969A77276E
:1000860000C06F916FBF1895582F5F7011F0000078
:1000960001C0A096CF93DF93E0962F9660E2599128
:1000A60055BB6A95000000000000000031F000001A
:1000B6000000000000000000F2CFDF91CF916F91A9
:1000C6006FBF25BA1895DD27CC270FE004BB8D9AA4
:1000D6008E9A06E005BB9598969800E00FBD09E05C
:1000E6000EBD02E00BBD0CE70ABD00E109BF089595
:1000F600F89404E00EBF0FE50DBF002422240FEF95
:10010600102E3AD210D204D2DEDF09E605BD00E099
:1001160003BDBB9A00E00093200409E0009321048C
:1001260001E00093220478945DD14BD131D17F3F19
:10013600F1F7772703B50F3F19F00FEF03BD02C0A4
:1001460000E003BDF7D1A4FC58D1A0FCD0D0A1FC9F
:10015600E8D0A2FC02D1A7FC90D0A6FCABD0BA2C6A
:100166006624052D03950E31502E09F0E0CF612C43
:10017600502C00E034D000912104109120041395F6
:1001860053D10030E1F00091220429D000922004DE
:1001960009E00093210400922404C0D1073050F4F2
:1001A60000932304EEE0F5E0E00FF01D04910093C8
:1001B600220411C0077009F0F3CF0695F1CF009124
:1001C60020040395053118F40093200404C000E0D0
:1001D6000093200400C00091220401D0A8CF0F9301
:1001E60000912004A6E0B1E0003021F090960A9537
:1001F60009F0FCCF00912104A00F00E0B01F0F9181
:10020600EEE9F4E010912304110F110F110F110FF5
:1002160020912404220F220F120FE10FF01D14E08B
:10022600259123FD0ED0119622FD0BD0119621FDAE
:1002360008D0119620FD05D05D961A9509F0F0CFED
:1002460008950C930895B5FE01C0089500E0C7DF38
:1002560065D1009123040395073068F400932304C5
:10026600EEE0F5E0E00FF01D049100922404009307
:100276002204B5DF089500E0F1CFB7FE01C008956E
:1002860000E0ADDF009124040F930395043080F461
:10029600009324040091210410912004C5D000305D
:1002A6000F9111F0009324040091220498DF089521
:1002B60000E0EECFB6FE01C0089500E090DF0091A9
:1002C60024040F930A950F3F80F4009324040091B1
:1002D600210410912004A8D000300F9111F0009352
:1002E6002404009122047BDF089503E0D1CFB0FE01
:1002F60001C0089500E073DF0091210410912004ED
:10030600039592D0003021F00091220468DF089511
:1003160000912104039500932104009122045FDFDC
:100326000895B1FE01C0089500E059DF009121044F
:10033600109120040A9578D0003021F00091220413
:100346004EDF089500E04BDF009121040A950093EB
:1003560021040091220443DF089501C0089500E0BE
:100366003EDF009121041091200413955DD00030EA
:1003760031F00091220433DF0DE1502E08950091F3
:1003860020040395009320040091220428DF089599
:100396000FE0A9EEB0E01D920A9509F0FCCF05E149
:1003A600A9E0B1E01C921E961C9252960A9509F09D
:1003B600F9CF0FE0A9EAB3E01D920A9509F0FCCF48
:1003C600089501E0A0E6B0E00C9302E0AFE7B0E0EC
:1003D6000C9301E0A0E0B4E00C9302E0AFE1B4E0DE
:1003E6000C93089500EFBB27A0E60D920D920D9297
:1003F6000D920A9509F0F9CF089505E1AAE0B1E05A
:100406000D920D920D920D920D920D920D920D92EE
:100416000D920D920D920D920C9254960A9509F03A
:10042600EFCF0092200408950F921F92202C20E215
:10043600219FA6E0B1E00A0E1B1E000E121CA02D85
:10044600B12D1F900F90EEE9F4E010912304110FE7
:10045600110F110F110F20912404220F220F120FDA
:10046600E10FF01D332714E0259123FD0FD01196DF
:1004760022FD0CD0119621FD09D0119620FD06D043
:100486005D961A9509F0F0CF032F08950C91003070
:1004960011F03FEF089508950606000006060000D5
:1004A6000606000006060000010101010F0000001B
:1004B600010101010F000000020700000203020013
:1004C60007020000020602000406020003060000FE
:1004D60004060200030600000206040006030000EC
:1004E60002060400060300000202030000070400DF
:1004F60003010100000107000101030000040700D9
:1005060003020200000701000401030A0D0C0900A2
:10051600A59805E007B905EE06B9089504B10F934D
:1005260005B10F9108958A9A8B988C9A9298949A0D
:10053600939A08950F931F932F93929A0CE30A951B
:1005460009F0FDCF929828E011270CE30A9509F0EF
:10055600FDCF9498839B0ED00CE30A9509F0FDCF4E
:10056600949A2A9511F0110FF0CFA12E2F911F9179
:100576000F9108951160089500E000BD04E109B9E6
:1005860008E10AB906E800BD08955D9BFECF0CB9E7
:1005960008950591003011F0F8DFFBCF08955F9BB9
:0605A600FECF0CB1089528
:00000001FF
