:020000020000FC
:02000000CBC172
:02000C000CC026
:100026006FB76F936B3000F06C3000F09598839546
:1000360009F001C0939562E08C30960711F000003C
:1000460002C099278827602F0EE00A9509F0FDCF98
:10005600062F959A61E0803E960708F415C0DD27C5
:10006600C1E061E08B3E960731F061E08C3E960779
:1000760029F0000006C096987FEF03C0969A77276E
:1000860000C06F916FBF1895582F5F7011F0000078
:1000960001C06A96CF93DF93E0966596EF93FF9340
:1000A6004F93682F6C70669548E0742E6894000034
:1000B6000000E991E79D45BBF0014295E60F45BB7F
:1000C600F4F9559155BB5295459155BBE991E79D7C
:1000D60045BBF0014295E60F45BBF4F9559155BB7A
:1000E6005295459155BBE991E79D45BBF001429577
:1000F600E60F45BBF4F9559155BB5295459155BB55
:10010600E991E79D45BBF0014295E60F45BBF4F941
:10011600559155BB5295459155BBE991E79D45BB18
:10012600F0014295E60F45BBF4F9559155BB529542
:10013600459155BBE991E79D45BBF0014295E60F18
:1001460045BBF4F9559155BB5295459155BBE9917F
:10015600E79D45BBF0014295E60F45BBF4F9559185
:1001660055BB5295459155BBE991E79D45BBF001BD
:100176004295E60F45BBF4F9559155BB529545910D
:1001860055BBE991E79D45BBF0014295E60F45BB9E
:10019600F4F9559155BB5295459155BBE991E79DAB
:1001A60045BBF0014295E60F45BBF4F9559155BBA9
:1001B6005295459155BBE991E79D45BBF0014295A6
:1001C600E60F45BBF4F9559155BB5295459155BB84
:1001D600E991E79D45BBF0014295E60F45BBF4F971
:1001E600559155BB5295459155BBE991E79D45BB48
:1001F600F0014295E60F45BBF4F9559155BB529572
:10020600459155BBE991E79D45BBF0014295E60F47
:1002160045BBF4F9559155BB5295459155BBE991AE
:10022600E79D45BBF0014295E60F45BBF4F95591B4
:1002360055BB5295459155BBE991E79D45BBF001EC
:100246004295E60F45BBF4F9559155BB529545913C
:1002560055BBE991E79D45BBF0014295E60F45BBCD
:10026600F4F9559155BB5295459155BBE991E79DDA
:1002760045BBF0014295E60F45BBF4F9559155BBD8
:100286005295459155BBE991E79D45BBF0014295D5
:10029600E60F45BBF4F9559155BB5295459155BBB3
:1002A600E991E79D45BBF0014295E60F45BBF4F9A0
:1002B600559155BB5295459155BBE991E79D45BB77
:1002C600F0014295E60F45BBF4F9559155BB5295A1
:1002D600459155BBE991E79D45BBF0014295E60F77
:1002E60045BBF4F9559155BB5295459155BBE991DE
:1002F600E79D45BBF0014295E60F45BBF4F95591E4
:1003060055BB5295459155BBE991E79D45BBF0011B
:100316004295E60F45BBF4F9559155BB529545916B
:1003260055BBE991E79D45BBF0014295E60F45BBFC
:10033600F4F9559155BB5295459155BBE991E79D09
:1003460045BBF0014295E60F45BBF4F9559155BB07
:100356005295459155BB4F91FF91EF9125BADF918B
:10036600CF916F916FBF1895DD27CC270FE004BBA7
:100376008D9A8E9A06E005BB9598969800E00FBD7B
:1003860009E00EBD02E00BBD0CE70ABD00E109BFA6
:100396000895F89404E00EBF0FE50DBF22240FEF79
:1003A600302EFBD1D1D1C5D1DFDF09E605BD00E096
:1003B60003BDBB9A00E00093200409E000932104EA
:1003C60001E00093220478945ED14CD131D17F3F75
:1003D600F1F7772703B50F3F19F00FEF03BD02C002
:1003E60000E003BDB8D1A4FC59D1A0FCD0D0A1FC3B
:1003F600E8D0A2FC02D1A7FC90D0A6FCABD0BA2CC8
:100406006624052D03950E31502E09F0E0CF632C9E
:10041600522C00E034D00091210410912004139551
:1004260055D10030E1F00091220429D02092200419
:1004360009E0009321042092240481D1073050F46E
:1004460000932304EEE3F8E0E00FF21D049100931D
:10045600220411C0077009F0F3CF0695F1CF009181
:1004660020040395053118F40093200404C000E02D
:100476000093200400C00091220401D0A8CF0F935E
:1004860000912004A4EEB0E0003021F05A960A95BF
:1004960009F0FCCF00912104A00F00E0B01F0F91DE
:1004A600EEECF7E010912304110F110F110F110F4D
:1004B60020912404220F220F120FE10FF21D14E0E7
:1004C600259123FD0ED0119622FD0BD0119621FD0C
:1004D60008D0119620FD05D057961A9509F0F0CF51
:1004E60008950C930895B5FE01C0089500E0C7DF96
:1004F60026D1009123040395073068F40093230462
:10050600EEE3F8E0E00FF21D04912092240400933C
:100516002204B5DF089500E0F1CFB7FE01C00895CB
:1005260000E0ADDF009124040F930395043080F4BE
:10053600009324040091210410912004C7D00030B8
:100546000F9111F0009324040091220498DF08957E
:1005560000E0EECFB6FE01C0089500E090DF009106
:1005660024040F930A950F3F80F40093240400910E
:10057600210410912004AAD000300F9111F00093AD
:100586002404009122047BDF089503E0D1CFB0FE5E
:1005960001C0089500E073DF00912104109120044A
:1005A600039594D0003021F00091220468DF08956D
:1005B60000912104039500932104009122045FDF3A
:1005C6000895B1FE01C0089500E059DF00912104AD
:1005D600109120040A957AD0003021F0009122046F
:1005E6004EDF089500E04BDF009121040A95009349
:1005F60021040091220443DF089501C0089500E01C
:100606003EDF009121041091200413955FD0003045
:1006160031F00091220433DF0DE1502E0895009150
:1006260020040395009320040091220428DF0895F6
:100636000FE0ADECB0E01FE01D930A9509F0FCCF8A
:1006460005E1A7EEB0E01C931E961C931C960A9536
:1006560009F0F9CF0FE0A9E0B3E01D930A9509F080
:10066600FCCF089501E0A0E6B0E00C9302E0A9E714
:10067600B0E00C9301E0A2E5B3E00C9302E0ABE638
:10068600B3E00C93089500EFBB27A0E62D922D92C0
:100696002D922D920A9509F0F9CF089505E1A8EE5D
:1006A600B0E010E01D931D931D931D931D931D93A4
:1006B6001D931D931D931D931D931D931C931E96B1
:1006C6000A9509F0EFCF2092200408952AE1219F90
:1006D600A4EEB0E00A0E1B1E000E121CA02DB12DBA
:1006E600EEECF7E010912304110F110F110F110F0B
:1006F60020912404220F220F120FE10FF21D33273F
:1007060014E0259123FD0FD0119622FD0CD01196F1
:1007160021FD09D0119620FD06D057961A9509F0AD
:10072600F0CF032F08950C91003011F03FEF08959C
:100736000895A59805E007B905EE06B9089504B130
:100746000F9305B10F9108958A9A8B988C9A929877
:10075600949A939A08950F931F932F93929A0CE36A
:100766000A9509F0FDCF929828E011270CE30A9527
:1007760009F0FDCF9498839B0ED00CE30A9509F0FF
:10078600FDCF949A2A9511F0110FF0CFA12E2F913B
:100796001F910F9108951160089500E000BD04E1D6
:1007A60009B908E10AB906E800BD08955D9BFECFC8
:1007B6000CB908950591003011F0F8DFFBCF0895CC
:1007C6005F9BFECF0CB108950606000006060000EA
:1007D6000606000006060000020202020F000000E4
:1007E600020202020F0000000207000002030200DC
:1007F60007020000020602000406020003060000CB
:1008060004060200030600000206040006030000B8
:1008160002060400060300000202030000070400AB
:1008260003010100000107000101030000040700A5
:1008360003020200000701000401030A0D0C09006F
:1010000000000000000000009919190119010100F9
:10101000AA2A2A022A020200BB3B3B033B0303002D
:10102000CC4C4C044C040400DD5D5D055D05050001
:10103000EE6E6E066E060600777F7F077F0707005D
:101040009919190119010100AA2A2A022A0202008B
:10105000BB3B3B033B030300CC4C4C044C0404005F
:10106000DD5D5D055D050500EE6E6E066E06060033
:10107000777F7F077F070700FF7F7F077F070F00CE
:00000001FF
