:020000020000FC
:02000000CBC172
:02000C000CC026
:100026006FB76F936B3000F06C3000F09598839546
:1000360009F001C0939562E08C30960711F000003C
:1000460002C099278827602F0EE00A9509F0FDCF98
:10005600062F959A61E0803E960708F415C0DD27C5
:10006600C1E061E08B3E960731F061E08C3E960779
:1000760029F0000006C096987FEF03C0969A77276E
:1000860000C06F916FBF1895582F5F7011F0000078
:1000960001C06A96CF93DF93E0966596EF93FF9340
:1000A6004F93682F6C70669548E0742E6894000034
:1000B6000000E991E79D45BBF0014295E60F45BB7F
:1000C600F4F9559155BB5295459155BBE991E79D7C
:1000D60045BBF0014295E60F45BBF4F9559155BB7A
:1000E6005295459155BBE991E79D45BBF001429577
:1000F600E60F45BBF4F9559155BB5295459155BB55
:10010600E991E79D45BBF0014295E60F45BBF4F941
:10011600559155BB5295459155BBE991E79D45BB18
:10012600F0014295E60F45BBF4F9559155BB529542
:10013600459155BBE991E79D45BBF0014295E60F18
:1001460045BBF4F9559155BB5295459155BBE9917F
:10015600E79D45BBF0014295E60F45BBF4F9559185
:1001660055BB5295459155BBE991E79D45BBF001BD
:100176004295E60F45BBF4F9559155BB529545910D
:1001860055BBE991E79D45BBF0014295E60F45BB9E
:10019600F4F9559155BB5295459155BBE991E79DAB
:1001A60045BBF0014295E60F45BBF4F9559155BBA9
:1001B6005295459155BBE991E79D45BBF0014295A6
:1001C600E60F45BBF4F9559155BB5295459155BB84
:1001D600E991E79D45BBF0014295E60F45BBF4F971
:1001E600559155BB5295459155BBE991E79D45BB48
:1001F600F0014295E60F45BBF4F9559155BB529572
:10020600459155BBE991E79D45BBF0014295E60F47
:1002160045BBF4F9559155BB5295459155BBE991AE
:10022600E79D45BBF0014295E60F45BBF4F95591B4
:1002360055BB5295459155BBE991E79D45BBF001EC
:100246004295E60F45BBF4F9559155BB529545913C
:1002560055BBE991E79D45BBF0014295E60F45BBCD
:10026600F4F9559155BB5295459155BBE991E79DDA
:1002760045BBF0014295E60F45BBF4F9559155BBD8
:100286005295459155BBE991E79D45BBF0014295D5
:10029600E60F45BBF4F9559155BB5295459155BBB3
:1002A600E991E79D45BBF0014295E60F45BBF4F9A0
:1002B600559155BB5295459155BBE991E79D45BB77
:1002C600F0014295E60F45BBF4F9559155BB5295A1
:1002D600459155BBE991E79D45BBF0014295E60F77
:1002E60045BBF4F9559155BB5295459155BBE991DE
:1002F600E79D45BBF0014295E60F45BBF4F95591E4
:1003060055BB5295459155BBE991E79D45BBF0011B
:100316004295E60F45BBF4F9559155BB529545916B
:1003260055BBE991E79D45BBF0014295E60F45BBFC
:10033600F4F9559155BB5295459155BBE991E79D09
:1003460045BBF0014295E60F45BBF4F9559155BB07
:100356005295459155BB4F91FF91EF9125BADF918B
:10036600CF916F916FBF1895DD27CC270FE004BBA7
:100376008D9A8E9A06E005BB9598969800E00FBD7B
:1003860009E00EBD02E00BBD0CE70ABD00E109BFA6
:100396000895F89404E00EBF0FE50DBF22240FEF79
:1003A600302EAAD280D274D2DFDF09E605BD00E086
:1003B60003BDBB9A06E00093200409E000932104E4
:1003C60001E00093220401E0009323042092250417
:1003D6007894B5D1A3D17ED17F3FF1F7772703B5C6
:1003E6000F3F19F00FEF03BD02C000E003BD62D25C
:1003F600A4FCB0D1A0FC1DD1A1FC35D1A2FC4FD1EB
:10040600A7FCDDD0A6FCF8D0BA2C009125040F3F3E
:1004160019F36624052D03950E31502E09F0DCCF15
:10042600632C522C00E093D00091210410912004FB
:100436001395A8D1003009F001C041C000912204F3
:100446004ED010E01F93D5D11F910F3F21F0139589
:10045600153161F0F7CF1F93012F102F0F93F2D1B3
:100466000F910A9509F0F9CF1F91F1CF2092200440
:1004760009E0009321042092240410D20730B0F43E
:1004860000932304ECEEFAE0E00FF21D04910093D2
:10049600220400912104109120041395139572D122
:1004A6000F3F09F018C03092250496CF102F111F68
:1004B60001270770073009F0E3CF0A95E1CF0091D5
:1004C60020040395053118F40093200404C000E0CD
:1004D6000093200400C00091220401D07DCF0F9329
:1004E60000912004A4EEB0E0003021F05A960A955F
:1004F60009F0FCCF00912104A00F00E0B01F0F917E
:10050600ECE2F9E020E410912304129F20912404E8
:10051600220F220F220F220F020E121CE00DF11DD8
:1005260014E02591221111D01196259122110DD09A
:1005360011962591221109D011962591221105D0E7
:1005460057961A9509F0EDCF08952C9308950F93B9
:1005560000912004A4EEB0E0003021F05A960A95EE
:1005660009F0FCCF00912104A00F00E0B01F0F910D
:10057600ECE2F9E020E410912304129F2091240478
:10058600220F220F220F220F020E121CE00DF11D68
:1005960014E02591221111D01196259122110DD02A
:1005A60011962591221109D011962591221105D077
:1005B60057961A9509F0EDCF08952C920895B7FE37
:1005C60001C0089500E0C3DF009124040F93039552
:1005D600043080F400932404009121041091200437
:1005E600D1D000300F9111F0009324040091220421
:1005F60076DF089500E0EECFB6FE01C0089500E074
:10060600A6DF009124040F930A950F3F80F4009310
:1006160024040091210410912004B4D000300F91DD
:1006260011F0009324040091220459DF089503E099
:10063600D1CFB0FE01C0089500E089DF009121040A
:100646001091200403959ED0003021F000912204E1
:1006560046DF08950091210403950093210400913B
:1006660022043DDF0895B1FE01C0089500E06FDF6A
:1006760000912104109120040A9584D0003021F0C5
:10068600009122042CDF089500E061DF009121042F
:100696000A95009321040091220421DF089501C0E8
:1006A600089500E054DF0091210410912004139571
:1006B60069D0003031F00091220411DF0DE1502E97
:1006C60008950091200403950093200400912204CC
:1006D60006DF08950DE0ADECB0E012E31D9313E3E1
:1006E6001D930A9509F0FCCF14E31D9305E1A7EECF
:1006F600B0E015E31C931E961C931C960A9509F010
:10070600F8CF0DE0A9E0B3E016E31D9313E31D93C4
:100716000A9509F0FCCF17E31D93089501E0A0E6C2
:10072600B0E00C9302E0A9E7B0E00C9301E0A2E58B
:10073600B3E00C9302E0ABE6B3E00C93089500EF50
:10074600BB27A0E62D922D922D922D920A9509F0A7
:10075600F9CF089505E1A8EEB0E010E01D931D93D2
:100766001D931D931D931D931D931D931D931D9303
:100776001D931D931C931E960A9509F0EFCF2092A8
:10078600200408952AE1219FA4EEB0E00A0E1B1E64
:10079600000E121CA02DB12DECE2F9E020E4109120
:1007A6002304129F20912404220F220F220F220FCE
:1007B600020E121CE00DF11D332714E025912211C3
:1007C60012D01196259122110ED011962591221143
:1007D6000AD011962591221106D057961A9509F03E
:1007E600EDCF032F08950C91003011F03FEF0895DF
:1007F60008952AE1219FA8EEB0E00A0E1B1EA02D47
:10080600B12D3FEF1DE00D91003019F01A9511F052
:10081600FACF3327032F08952AE1219FA8EEB0E0EF
:100826000A0E1B1EA02DB12D2D922D922D922D92CA
:100836002D922D922D922D922D922D922D922D92BA
:100846002C9208952AE1219FA8EEB0E00A0E1B1E05
:10085600A02DB12DEA2FFB2F7A9701910D930191CF
:100866000D9301910D9301910D9301910D930191BA
:100876000D9301910D9301910D9301910D930191AA
:100886000D9301910D9301910D9301910D9308958F
:10089600A59805E007B905EE06B9089504B10F93CA
:1008A60005B10F9108958A9A8B988C9A9298949A8A
:1008B600939A08950F931F932F93929A0CE30A9598
:1008C60009F0FDCF929828E011270CE30A9509F06C
:1008D600FDCF9498839B0ED00CE30A9509F0FDCFCB
:1008E600949A2A9511F0110FF0CFA12E2F911F91F6
:1008F6000F9108951160089500E000BD04E109B963
:1009060008E10AB906E800BD08955D9BFECF0CB963
:1009160008950591003011F0F8DFFBCF08955F9B35
:10092600FECF0CB108950001020000030400000090
:1009360000000000000000010200000304000000A7
:100946000000000000000001020000030400000097
:100956000000000000000001020000030400000087
:100966000000000000000000050000000600000076
:100976000600000007000809090A00000000000040
:100986000000000000000000050000000600000056
:100996000600000007000809090A00000000000020
:1009A60000000000000000000B00000C0D0E00000F
:1009B60000000000000000000B0000000F0E000009
:1009C600100000000000000C110E000010000000D6
:1009D60000000000000000000B00000C12000000E8
:1009E60010000000000000130000001415000000B5
:1009F60016000000000000001817001A1900000079
:100A060000000000000000130000001415000000A4
:100A160016000000000000001817001A1900000058
:100A260000000000000000001B00001D1C00001E4E
:100A3600000000000000001F20000000212200002E
:100A460000000000000000001B00001D1C00001E2E
:100A5600000000000000001F20000000212200000E
:100A66000000000000000000230000002400000039
:100A76002526000000000000000000292827002A83
:100A860000000000000000002B2C000000240000E5
:100A9600002A000000000000000000000023002BD8
:100AA600282D0000000000000005000000060000E0
:100AB600082E000000000000000000050000002FC6
:100AC600090A000000000000300A000006000000CD
:100AD60007000000000000000000000809310000C7
:0E0AE6000007000000000401030A0D0C0900C7
:101000000000000000000000CCCC4C444C444C4498
:10101000CC4C4404440444044C444C444C4404002C
:1010200044044404440400009919190119011901E8
:1010300019011901190119011901190119010100F9
:1010400099991911191101009999111111110000A3
:101050009919110111010000BB3B3B033B033B030A
:10106000BBBB3B333B3303003B33333333330000F1
:10107000BB3B3303330300003B333B333B333B0386
:101080003B033B033B030300BBBB3333333333032B
:101090003B03330333033B03AA2A2A022A022A0210
:1010A0002A222A222A220200AA2A220222022A0212
:1010B0002A022A022A020200AA2A2202220200008E
:1010C000AAAA2A222A222A022A0222022202000094
:1010D000AAAA2A222A220200DD5D5D055D055D05C2
:1010E0005D05550555050000DDDD5D555D555D056A
:1010F0005D055D055D050500DDDD5D555D550500A2
:10110000DD5D550555055D055DD55D555D550500F4
:10111000DD5D550555050000EE6E6E066E066E0629
:101120006E066E066E066E066E666E666E6606006D
:10113000EE0E660666060000EE6E660666060000A7
:10114000EEEE666666660000EEEE6E666E666E0633
:101150006E066E066E060600EEEE6E666E660600A3
:10116000EE6E6606660660066E0666066606000099
:101170001901110111010000199119111911010032
:1011800099991911191119019919110111011901CF
:10119000FFFF7F777F777F07FFFF77777777000005
:1011A000FF7F770777077F077F077F077F077F0727
:1011B0007F777F777F7707007F07770777070000C4
:00000001FF
